{
  "_format": "hh-sol-artifact-1",
  "contractName": "WavePortal",
  "sourceName": "contracts/WavePortal.sol",
  "abi": [
    {
      "inputs": [],
      "stateMutability": "nonpayable",
      "type": "constructor"
    },
    {
      "inputs": [],
      "name": "getTotalWaves",
      "outputs": [
        {
          "internalType": "uint256",
          "name": "",
          "type": "uint256"
        }
      ],
      "stateMutability": "view",
      "type": "function"
    },
    {
      "inputs": [],
      "name": "wave",
      "outputs": [],
      "stateMutability": "nonpayable",
      "type": "function"
    }
  ],
  "bytecode": "0x608060405234801561001057600080fd5b5061003c6040518060600160405280602581526020016108676025913961004160201b61020c1760201c565b6101bb565b6100dd816040516024016100559190610199565b6040516020818303038152906040527f41304fac000000000000000000000000000000000000000000000000000000007bffffffffffffffffffffffffffffffffffffffffffffffffffffffff19166020820180517bffffffffffffffffffffffffffffffffffffffffffffffffffffffff83818316178352505050506100e060201b60201c565b50565b60008151905060006a636f6e736f6c652e6c6f679050602083016000808483855afa5050505050565b600081519050919050565b600082825260208201905092915050565b60005b83811015610143578082015181840152602081019050610128565b60008484015250505050565b6000601f19601f8301169050919050565b600061016b82610109565b6101758185610114565b9350610185818560208601610125565b61018e8161014f565b840191505092915050565b600060208201905081810360008301526101b38184610160565b905092915050565b61069d806101ca6000396000f3fe608060405234801561001057600080fd5b50600436106100365760003560e01c80636fe15b441461003b5780639a2cdc0814610045575b600080fd5b610043610063565b005b61004d610120565b60405161005a919061041f565b60405180910390f35b60016000808282546100759190610469565b925050819055506001339080600181540180825580915050600190039060005260206000200160009091909190916101000a81548173ffffffffffffffffffffffffffffffffffffffff021916908373ffffffffffffffffffffffffffffffffffffffff16021790555061011e6040518060400160405280600d81526020017f2573206861732077617665642100000000000000000000000000000000000000815250336102a5565b565b60006101636040518060400160405280601781526020017f5765206861766520256420746f74616c20776176657321000000000000000000815250600054610341565b60005b600180549050811015610203576101f06040518060400160405280600281526020017f2d20000000000000000000000000000000000000000000000000000000000000815250600183815481106101c0576101bf61049d565b5b9060005260206000200160009054906101000a900473ffffffffffffffffffffffffffffffffffffffff166102a5565b80806101fb906104cc565b915050610166565b50600054905090565b6102a28160405160240161022091906105a4565b6040516020818303038152906040527f41304fac000000000000000000000000000000000000000000000000000000007bffffffffffffffffffffffffffffffffffffffffffffffffffffffff19166020820180517bffffffffffffffffffffffffffffffffffffffffffffffffffffffff83818316178352505050506103dd565b50565b61033d82826040516024016102bb929190610607565b6040516020818303038152906040527f319af333000000000000000000000000000000000000000000000000000000007bffffffffffffffffffffffffffffffffffffffffffffffffffffffff19166020820180517bffffffffffffffffffffffffffffffffffffffffffffffffffffffff83818316178352505050506103dd565b5050565b6103d98282604051602401610357929190610637565b6040516020818303038152906040527fb60e72cc000000000000000000000000000000000000000000000000000000007bffffffffffffffffffffffffffffffffffffffffffffffffffffffff19166020820180517bffffffffffffffffffffffffffffffffffffffffffffffffffffffff83818316178352505050506103dd565b5050565b60008151905060006a636f6e736f6c652e6c6f679050602083016000808483855afa5050505050565b6000819050919050565b61041981610406565b82525050565b60006020820190506104346000830184610410565b92915050565b7f4e487b7100000000000000000000000000000000000000000000000000000000600052601160045260246000fd5b600061047482610406565b915061047f83610406565b92508282019050808211156104975761049661043a565b5b92915050565b7f4e487b7100000000000000000000000000000000000000000000000000000000600052603260045260246000fd5b60006104d782610406565b91507fffffffffffffffffffffffffffffffffffffffffffffffffffffffffffffffff82036105095761050861043a565b5b600182019050919050565b600081519050919050565b600082825260208201905092915050565b60005b8381101561054e578082015181840152602081019050610533565b60008484015250505050565b6000601f19601f8301169050919050565b600061057682610514565b610580818561051f565b9350610590818560208601610530565b6105998161055a565b840191505092915050565b600060208201905081810360008301526105be818461056b565b905092915050565b600073ffffffffffffffffffffffffffffffffffffffff82169050919050565b60006105f1826105c6565b9050919050565b610601816105e6565b82525050565b60006040820190508181036000830152610621818561056b565b905061063060208301846105f8565b9392505050565b60006040820190508181036000830152610651818561056b565b90506106606020830184610410565b939250505056fea2646970667358221220954492ad895a8084fd60deae1b773c1a8418a50fa1ce91f9364d222ddf11891664736f6c63430008110033596f20796f2c204920616d206120636f6e747261637420616e64204920616d20736d617274",
  "linkReferences": {},
  "deployedLinkReferences": {}
}